:020000040800F2
:100000008006002089010008390400085303000815
:100010005503000843020008E50B0008000000003B
:10002000000000000000000000000000550600086D
:1000300045020008000000006F050008C107000825
:10004000A3010008A3010008A3010008A301000800
:10005000A3010008A3010008A3010008A3010008F0
:10006000A3010008A3010008A3010008A3010008E0
:10007000A3010008A3010008A3010008A3010008D0
:10008000A3010008A3010008A3010008A3010008C0
:10009000A3010008A3010008A3010008A3010008B0
:1000A000A3010008A3010008A3010008A3010008A0
:1000B000A3010008A3010008A3010008A301000890
:1000C000A3010008A3010008A3010008A301000880
:1000D000A3010008210A0008A3010008A3010008E9
:1000E000A3010008A3010008A301000800F002F822
:1000F00000F03AF80AA090E8000C82448344AAF188
:100100000107DA4501D100F02FF8AFF2090EBAE885
:100110000F0013F0010F18BFFB1A43F0010318473B
:10012000DC0B0000FC0B0000103A24BF78C878C13B
:10013000FAD8520724BF30C830C144BF04680C60ED
:10014000704700000023002400250026103A28BF35
:1001500078C1FBD8520728BF30C148BF0B60704739
:100160001FB51FBD10B510BD00F031F81146FFF7E7
:10017000F7FF00F0A1FD00F04FF803B4FFF7F2FF26
:1001800003BC00F057F800000948804709480047C1
:10019000FEE7FEE7FEE7FEE7FEE7FEE7FEE7FEE737
:1001A000FEE7FEE704480549054A064B7047000094
:1001B000C5070008ED000008800000208006002030
:1001C000800200208002002070477047704775460B
:1001D00000F02CF8AE4605006946534620F00700B3
:1001E000854618B020B5FFF7DDFFBDE820404FF091
:1001F00000064FF000074FF000084FF0000B21F011
:100200000701AC46ACE8C009ACE8C009ACE8C009DD
:10021000ACE8C0098D46704710B50446AFF30080C6
:100220002046BDE81040FFF7A8BF00000048704717
:100230001C00002001491820ABBEFEE7260002008A
:100240007047FEE7704700B502464FF47A7302E04C
:10025000184600F010F8521E501CF9D100BD30B500
:1002600004464FF47A7502E02846FFF7ECFF641E5F
:10027000601CF9D130BD00EBC000C1004FF0E020A0
:10028000416100218161052101610169C903FCD53A
:100290000421016170472DE9F0410022CC7804F07F
:1002A0000F03E40601D58C7823430C784FF00F0739
:1002B00014F0FF0F4FF0010C1CD005680CFA02F48B
:1002C0000E882640A64211D1960007FA06F825EAC4
:1002D000080503FA06F848EA0505CE78282E02D06C
:1002E000482E02D002E0446100E00461521C082A5A
:1002F000E4D305600A88FF2A1ED94568002202F16E
:1003000008060CFA06F40E882640A64210D1960084
:1003100007FA06F825EA080503FA06F848EA05058B
:10032000CE78282E00D14461CE78482E00D10461C9
:10033000521C082AE3D34560BDE8F0810246002044
:1003400092680A4200D00120704741617047016104
:100350007047FEE7FEE7000010B5054C042120467B
:10036000FFF7F5FF2046BDE810400821FFF7EDBF7D
:100370000008014010B5054C04212046FFF7E5FFB9
:100380002046BDE810400821FFF7E1BF000801400A
:1003900010B5054C04212046FFF7D9FF2046BDE8E3
:1003A00010400821FFF7D3BF0008014010B5054CED
:1003B00020212046FFF7CBFF2046BDE8104040211A
:1003C000FFF7C3BF0008014010B5054C20212046AF
:1003D000FFF7BBFF2046BDE810404021FFF7B7BF45
:1003E0000008014010B5054C20212046FFF7AFFF63
:1003F0002046BDE810404021FFF7A9BF000801409A
:1004000038B50121042000F0C1F86C20ADF80000DF
:1004100010208DF8030003208DF80200054C69467A
:100420002046FFF738FF6C212046FFF78EFF00F0D3
:1004300041F838BD000801407047000070B50F2337
:10044000C27801260178002A1ED0144A126802F4EC
:10045000E062C2F5E062120AC2F10404D3404578BA
:10046000A54082781A402A43120101F1E02181F867
:100470000024007800F01F018E404009800000F148
:10048000E020C0F8006170BD01F01F0086404809FF
:10049000800000F1E020C0F8806170BD0CED00E04C
:1004A0000249084302490860704700000000FA054D
:1004B0000CED00E030B589B00121084600F058F895
:1004C0000121042000F062F818208DF82300032099
:1004D000ADF820008DF8220008A91848FFF7DBFED0
:1004E0000024ADF81A40ADF816406320ADF81800AE
:1004F0002320ADF814008DF81C404FF0804505A96D
:10050000284600F03FFA01A800F02EFA6021ADF86D
:100510000410ADF80C400121ADF80610ADF80A400A
:1005200001A9284600F098F901A9284600F0D8F959
:100530000121284600F084F909B030BD00080140CF
:1005400001464FF0804000F019BA01464FF080405C
:1005500000F016BA10B5FFF70DFFFFF735FF462084
:10056000FFF7F3FFBDE810406420FFF7E9BF7047D5
:10057000054A002903D0D1690143D1617047D1698F
:100580008143D1617047000000100240054A0029F4
:1005900003D09169014391617047916981439161F1
:1005A000704700000010024010B5264A516801F063
:1005B0000C01254B002927D0042927D0082927D052
:1005C0000360516801F0F0010909204B5C5C01688F
:1005D000E1404160546804F4E064240A1C5D21FA9F
:1005E00004F48460546804F46054E40A1B5DD94048
:1005F000C160526802F44042920B144B1B1F9A5C7C
:10060000B1FBF2F1016110BD0360DAE70360D8E7E6
:10061000516801F47011536803F48033022404EB31
:10062000914133B153689B0307D5094B594301608E
:10063000C7E7074B59430160C3E7034B59430160C8
:10064000BFE700000010024000127A000400002002
:1006500000093D007047000030B587B001218803D4
:10066000FFF794FF01210420FFF790FF18208DF879
:100670001B004FF40070ADF8180003248DF81A40E9
:10068000204D06A92846FFF706FE48218DF81B10CD
:100690002915ADF818108DF81A4006A92846FFF75D
:1006A000FAFD4FF4165002900020ADF814000C2112
:1006B000ADF81210ADF81000ADF80E00ADF80C005A
:1006C000114C02A9204600F02BFA012240F22551DC
:1006D000204600F009FA4FF4A060FFF7E1FE252163
:1006E0008DF8041001218DF807108DF805108DF894
:1006F000061001A8FFF7A2FE0121204600F0C8F96C
:1007000007B030BD0008014000380140AFF3008061
:100710000CB50022019200922748016841F4803113
:1007200001604FF4A063016801F400310091019968
:10073000491C0191009911B901999942F3D10168BD
:10074000890302D50121009100E00092009901295E
:1007500030D11A490A6842F010020A600A6822F091
:1007600003020A600A6842F002020A6041684160BE
:1007700041684160416841F480614160416821F411
:100780007C114160416841F4E8114160016841F029
:100790008071016001688901FCD5416821F0030185
:1007A0004160416841F0020141604168C1F381014B
:1007B0000229FAD10CBD00000010024000200240C6
:1007C0007047000010B50F48016841F00101016059
:1007D00041680D4A1140416001680C4A11400160B6
:1007E000016821F480210160416821F4FE0141602B
:1007F0004FF41F018160FFF789FF05494FF000604A
:10080000086010BD001002400000FFF8FFFFF6FE78
:1008100008ED00E008B501210820FFF7B7FEF82039
:10082000ADF8000028208DF8030003208DF80200A9
:1008300069460248FFF72FFD08BD0000000C01408B
:10084000002904D0018841F001010180704701882E
:1008500021F001010180704730B5028C22F00102C5
:100860000284028C8388048B24F0700424F0030536
:100870000C882C4322F002020D8915434A882A4332
:10088000124DA8420BD0124DA84208D0114DA842DB
:1008900005D0114DA84202D0104DA8420FD122F030
:1008A00008054A892A4322F004058A882A4323F44A
:1008B000807323F400738D891D43CB892B43838080
:1008C0000483C9888186028430BD0000002C014069
:1008D0000034014000400140004401400048014014
:1008E00070B5028C22F010020284028C8388048B83
:1008F00024F4E04424F440760D884FF6FF7404EAB3
:100900000525354322F020020E8904EA0616164317
:100910004A8804EA02123243114EB04202D0114E0C
:10092000B04217D122F080024E8904EA061616431F
:1009300026F040068A8804EA0212324323F48063D8
:1009400023F400638E8904EA86061E43CB8904EAF9
:100950008303334383800583C9880187028470BD84
:10096000002C014000340140002101804180818041
:10097000C180018141818181C18170478186704739
:100980000187704730B502881B4C1C4DA0420DD02A
:10099000A8420BD0B0F1804F08D0194B984205D037
:1009A000184B984202D0184B984203D122F07003A2
:1009B0004A881A43154B984206D0154B984203D0EB
:1009C00022F44073CA881A4302808A8882850A8882
:1009D0000285A0420AD0A84208D00E4A904205D013
:1009E0000D4A904202D00D4A904201D1097A018607
:1009F0000121818230BD0000002C01400034014003
:100A00000004004000080040000C004000100040BE
:100A100000140040004001400044014000480140F3
:100A200070B5154D40F225563146284600F03CF889
:100A300001281FD1284600F0D1F8C2B20F4C002087
:100A40000121237823B1012B06D0022B09D00BE022
:100A500052B92170607007E0FF2A05D10220207092
:100A600002E0A2702070E17031462846BDE8704077
:100A700000F006B870BD00000038014014000020EE
:100A800040F66A120A0A01219140C9430180704769
:100A9000002904D0818941F4005181817047818906
:100AA00021F400518181704770B5002440F66A122C
:100AB000C1F3421301F01F05012606FA05F2012BCE
:100AC0000CD0022B0DD0838A1340090A8E40008877
:100AD00030400BB100B10124204670BD8389134022
:100AE000F3E7038A1340F0E710B540F66A13C1F349
:100AF000421301F01F040121A140012B07D0022B5A
:100B000007D014303AB102680A43026010BD0C30BD
:100B1000F8E71030F6E702688A43026010BD000073
:100B200030B585B004460D46208A4CF6FF7108406A
:100B3000E98801432182A0894EF6F3110840A98873
:100B40002A8911436A8902431143A181A08A4FF681
:100B5000FF410840A9890143A1826846FFF724FDAF
:100B60001D48844201D1039800E00298A18909043C
:100B700008D500EBC00101EB001029684900B0FB6B
:100B8000F1F007E000EBC00101EB001029688900DB
:100B9000B0FBF1F06422B0FBF2F109010B096FF038
:100BA00018056B4300EB8300A3891D044FF032034B
:100BB00007D503EBC000B0FBF2F000F007000843DC
:100BC00006E003EB0010B0FBF2F000F00F0008436A
:100BD000208105B030BD0000003801408088C0F39E
:100BE00008007047FEE710B5FFF7B6FBFFF7DEFB26
:100BF0004120FFF7A5FCBDE810406420FFF7A5BC2D
:100C000010B5FFF7A9FBFFF7D1FB5020FFF798FCC9
:100C1000BDE810405020FFF798BC000010B5FFF76A
:100C2000EFFBFFF7F7FD00F04EF84FF4FA60FFF727
:100C30000AFBFFF7E5FF4FF4FA70FFF704FB00F043
:100C400042F80120FFF70BFBFFF784FC4FF46170C3
:100C5000FFF7F9FA174C01E0FFF7C5FF80212046A6
:100C6000FFF76CFB0128F7D001E0FFF7BCFF402144
:100C70002046FFF763FB0128F7D001E0FFF76AFC8D
:100C800010212046FFF75AFB0128F7D001E0FFF7BB
:100C9000B7FF80212046FFF751FB0128F7D000F075
:100CA0001FF84FF4C870FFF7CEFABDE8104000F00F
:100CB0000AB80000000C014010B5FFF7CDFCFFF7AB
:100CC000ADFF002010BD10B5FFF762FBFFF78AFBF8
:100CD0000020FFF735FCBDE810400020FFF735BCD1
:100CE00010B5FFF747FBFFF76FFB4620FFF728FC27
:100CF000BDE810404620FFF728BC00001C0D00088E
:100D0000000000201C00000028010008380D000829
:100D10001C000020640600004401000802040608CC
:100D20000000000001020304010203040607080991
:080D30000000000000000000BB
:04000005080000ED02
:00000001FF
